:100000000C945E000C9486000C9486000C94860080
:100010000C9486000C9486000C9486000C94860048
:100020000C9486000C9486000C9486000C94860038
:100030000C9486000C9486000C9486000C94860028
:100040000C94FD090C9486000C94CB090C94A50922
:100050000C9486000C9486000C9486000C94860008
:100060000C94470A0C94860000000008000201006E
:100070000003040700000000000000000000000072
:10008000250028002B0000000000240027002A0083
:10009000040404040404040402020202020203032E
:1000A0000303030301020408102040800102040836
:1000B0001020010204081020660BBA0E11241FBE86
:1000C000CFEFD8E0DEBFCDBF11E0A0E0B1E0ECEAB9
:1000D000F4E202C005900D92A63EB107D9F723E0E5
:1000E000A6EEB1E001C01D92AC38B207E1F710E016
:1000F000CDE5D0E004C02197FE010E941E11CC3551
:10010000D107C9F70E94CB0B0C9449120C94000044
:1001100090E0FC01EC55FF4F249180579F4FFC016C
:100120008491882399F090E0880F991FFC01EA5789
:10013000FF4FA591B491FC01E458FF4F8591949134
:100140008FB7F894EC91E22BEC938FBF0895823037
:10015000910538F0880F991F880F991F059701970F
:10016000F1F70895982F2091B60281E0213208F02E
:1001700043C0809192028111FCCF8091B50232E0A0
:1001800030939202909391029FEF9093900210927D
:100190008F0220938E02A5E9B2E0EEE6F2E090E055
:1001A000291331C010926D0290916D02880F892B36
:1001B00080936D0280916C02813049F510926C023F
:1001C00080916D028093BB008091BC0083FDF8CFCD
:1001D00085EC8093BC00809192028230E1F38091A3
:1001E00090028F3FB1F0809190028032A1F0809117
:1001F0009002803391F084E0109294021092B60243
:100200001092930208953D9131939F5FC9CF85EE7F
:10021000E0CF80E0F1CF82E0EFCF83E0EDCF089533
:100220000895AF92BF92CF92DF92EF92FF920F9319
:100230001F93CF93DF936C017B018B01040F151F7C
:10024000EB015E01AE18BF08C017D10759F06991E4
:10025000D601ED91FC910190F081E02DC601099548
:10026000892B79F7C501DF91CF911F910F91FF90F5
:10027000EF90DF90CF90BF90AF900895FC01538D29
:10028000448D252F30E0842F90E0821B930B541770
:1002900010F0CF96089501970895FC01918D828DFD
:1002A000981761F0A28DAE0FBF2FB11D5D968C9196
:1002B000928D9F5F9F73928F90E008958FEF9FEFD5
:1002C0000895FC01918D828D981731F0828DE80F91
:1002D000F11D858D90E008958FEF9FEF0895FC014B
:1002E000918D228D892F90E0805C9F4F821B910918
:1002F0008F739927089587EB92E00E946F0121E0A8
:10030000892B09F420E0822F089580E090E0892B6A
:1003100029F00E947B0181110C9400000895FC01DA
:10032000A48DA80FB92FB11DA35ABF4F2C91848D56
:1003300090E001968F739927848FA689B7892C93B3
:10034000A089B1898C91837080648C93938D848D06
:10035000981306C00288F389E02D80818F7D808309
:100360000895EF92FF920F931F93CF93DF93EC01C9
:1003700081E0888F9B8D8C8D98131AC0E889F9894C
:10038000808185FF15C09FB7F894EE89FF8960834F
:10039000E889F98980818370806480839FBF81E0D0
:1003A00090E0DF91CF911F910F91FF90EF90089512
:1003B000F62E0B8D10E00F5F1F4F0F731127E02EED
:1003C0008C8D8E110CC00FB607FCFACFE889F98925
:1003D000808185FFF5CFCE010E948F01F1CFEB8D9B
:1003E000EC0FFD2FF11DE35AFF4FF0829FB7F894F9
:1003F0000B8FEA89FB8980818062CFCFCF93DF9317
:10040000EC01888D8823B9F0AA89BB89E889F9892C
:100410008C9185FD03C0808186FD0DC00FB607FC61
:10042000F7CF8C9185FFF2CF808185FFEDCFCE0194
:100430000E948F01E9CFDF91CF91089590E0FC01F8
:10044000E859FF4F2491FC01EC55FF4F3491FC011A
:10045000E057FF4FE491EE23C9F0222339F0233017
:1004600001F1A8F4213019F1223029F1F0E0EE0F6A
:10047000FF1FE458FF4FA591B4918FB7F894EC910A
:10048000611126C030953E233C938FBF08952730DD
:10049000A9F02830C9F0243049F7809180008F7D81
:1004A00003C0809180008F7780938000DFCF84B578
:1004B0008F7784BDDBCF84B58F7DFBCF8091B0007B
:1004C0008F778093B000D2CF8091B0008F7DF9CF2D
:1004D0003E2BDACF3FB7F89480914E0290914F02B5
:1004E000A0915002B091510226B5A89B05C02F3FA4
:1004F00019F00196A11DB11D3FBFBA2FA92F982F4A
:100500008827BC01CD01620F711D811D911D42E044
:10051000660F771F881F991F4A95D1F708958F920C
:100520009F92AF92BF92CF92DF92EF92FF924B01D8
:100530005C010E946A026B017C010E946A026C19D4
:100540007D098E099F09683E734081059105A8F3D6
:1005500021E0821A9108A108B10888EEC80E83E054
:10056000D81EE11CF11C81149104A104B10429F7E7
:10057000FF90EF90DF90CF90BF90AF909F908F90C3
:1005800008950895FC0183858F3F19F061E00C9474
:100590001E020895FC0180819181892B39F0A2818E
:1005A000B3819C9111968C919CBD8DBD83858F3FAD
:1005B00019F060E00C941E020895AF92BF92CF92A2
:1005C000DF92EF92FF920F931F93CF93DF93EC0193
:1005D00088819981892B89F06EBD0DB407FEFDCF0E
:1005E000BEB48B2DDF91CF911F910F91FF90EF90B3
:1005F000DF90CF90BF90AF9008958885998511E0E6
:10060000892B09F010E8AA24A394862F812309F0EE
:10061000A12C062F2C813D814E815F8160E271EA21
:1006200087E090E00E94FC10F22EB02EE12CC22E4A
:10063000D12CFF2019F0C6010E94A7008A85877F70
:1006400009F042C08D858F3F89F0902F912381E082
:1006500009F480E08A1551F0EF85F8898F89992394
:1006600069F19081892B8083AA24A394E989FA896E
:100670008081998D892B8083FF2019F0C6010E940B
:10068000A7008E858F3F39F0EB89FC898081988D9A
:10069000892309F0E12AE989FA899081898D809579
:1006A000892380838E858F3F09F0BE2C88859985AC
:1006B000892BB9F5110F1111BCCF93CF9081809583
:1006C00089238083A12CD2CFE989FA898081998DF1
:1006D000892B8083FF2019F0C6010E94A7008D8519
:1006E0008F3F49F0EF85F8898F89902F9123A9F0EA
:1006F0009081892B8083E989FA899081898D809501
:10070000892380838E858F3F69F2EB89FC89808104
:10071000988D892339F2E12AC5CF9081809589236C
:10072000E9CF1695C8CF8F929F92AF92BF92CF928A
:10073000DF92EF92FF920F931F93CF93DF937C0191
:100740004B016A01B22EA32E0E94CA02E401C80C1A
:10075000D91CCC15DD0569F4CB2DDA2D0C0F1D1F2E
:10076000C017D10759F06FEFC7010E94DD028993CE
:10077000F7CF6991C7010E94DD02EBCFC7010E944C
:10078000C20281E0DF91CF911F910F91FF90EF9016
:10079000DF90CF90BF90AF909F908F9008958F92F1
:1007A0009F92AF92BF92CF92DF92EF92FF920F9300
:1007B0001F93CF93DF937C01B62EA72E6A014901C8
:1007C0000E94CA02E401080D191DC017D10761F487
:1007D000CB2DDA2DCC0EDD1ECC15DD0551F0699147
:1007E000C7010E94DD02F8CF6991C7010E94DD02B6
:1007F000ECCFC7010E94C20281E0DF91CF911F912F
:100800000F91FF90EF90DF90CF90BF90AF909F90AF
:100810008F9008951F93CF93DF93EA01122FDC018D
:1008200011968D919C91DC01ED91FC910280F381F8
:10083000E02D0995C817D90729F4812F0E94B2002D
:1008400091E0811190E0892FDF91CF911F91089560
:10085000CF92DF92EF92FF920F931F93CF93DF938C
:1008600000D0CDB7DEB7FC014787508B618B728B10
:100870008285882371F14487452F562F672F77276C
:10088000882349F143877F018BE0E80EF11C9681B4
:10089000878199838A83C080D180C114D10409F4EF
:1008A00043C0018510E098012E5F3F4FD60114969A
:1008B0008D919C918217930780F480E00F900F90A8
:1008C000DF91CF911F910F91FF90EF90DF90CF902C
:1008D00008954387D1CF4487D6CFF6018181928195
:1008E000208131E0309393022093B502109294025C
:1008F0001092B6020115110541F421E042E050E0EA
:10090000B701C6010E940A04D9CFDC01ED91FC9128
:100910000280F381E02DA801BE016F5F7F4F099532
:100920000817190751F6E9CFA281B381109729F270
:1009300024813581018510E02330310579F48E7FE3
:1009400089839A830F5F1F4F9E012F5F3F4F42E0C5
:1009500050E0B701CD010E94CF03B0CF2115310582
:1009600019F49F779983F0CF2230310511F4906804
:10097000F9CF2130310541F79F779064F3CF85EDB2
:100980008093BC008091BC0084FDFCCF1092920249
:10099000089520910602260F3327331F2132310597
:1009A000ECF420919202FC0190E080E0243069F0A8
:1009B00082E00895A09106022191AC014A515E4F58
:1009C000A40FB52FB11D2C930196861798F3809133
:1009D0000602680F6093060280E0089581E00895A2
:1009E0001092920281E08093910210926C0261E079
:1009F00082E10E941E0261E083E10E941E02E9EB97
:100A0000F0E080818E7F808380818D7F808388E489
:100A10008093B80085E48093BC000895CF93DF9362
:100A2000EC018B818823A1F0888191E0909393025F
:100A30008093B502109294021092B60281E00E9457
:100A4000B20091E0811190E0892FDF91CF9108955C
:100A50001092570210925602109294021092B6020F
:100A60000E94F0048FE091E090935502809354022D
:100A700080E191E0909353028093520281E08B8356
:100A8000CE010E940E05982F8111CECFDDCF0895A3
:100A9000E091570280915602E81730F4F0E0E75DEC
:100AA000FD4F808190E008958FEF9FEF0895909122
:100AB0005702809156022FEF3FEF981748F4E92F25
:100AC000F0E0E75DFD4F208130E09F5F909357029B
:100AD000C90108958091560290915702891B990B84
:100AE0000895CF92DF92EF92FF920F931F93CF93CF
:100AF000DF937C01CB018A0120919302222389F0AC
:100B0000EB016B01C40ED51ECC15DD0569F06991B2
:100B1000D701ED91FC910190F081E02DC70109957D
:100B2000F3CF642F0E94C904C801DF91CF911F91B8
:100B30000F91FF90EF90DF90CF900895CF93DF93C8
:100B40001F92CDB7DEB76983209193022223F9F07B
:100B50002091B602203258F021E030E0FC013383CE
:100B6000228390E080E00F90DF91CF9108958091F3
:100B70009402E82FF0E0EB56FD4F998190838F5F50
:100B8000809394028093B60281E090E0ECCF61E024
:100B9000CE0101960E94C904F7CF90E080E008954D
:100BA000CF93DF93EC0160E08E810E941E0261E032
:100BB0008E810E941E0260E08E810E941E028BE8E0
:100BC00091E00197F1F7DF91CF910895CF92DF92F5
:100BD000EF92FF920F931F93CF93DF936C017C01F1
:100BE00087E0E80EF11CD0E0C0E0062F10E0B8016D
:100BF0000C2E02C0759567950A94E2F76170F701B3
:100C000081917F010E941E022196C430D10579F79F
:100C1000C601DF91CF911F910F91FF90EF90DF9070
:100C2000CF900C94D005CF92DF92EF92FF920F936A
:100C30001F93CF93DF93EC01F62E642F8C810E94DB
:100C40001E028D818F3F19F060E00E941E020F2D61
:100C500010E08F8584FF25C06E0187E0C80ED11C8F
:100C6000F12CE12CB8010E2C02C0759567950A9401
:100C7000E2F76170F60181916F010E941E02FFEFA1
:100C8000EF1AFF0A88E0E816F10461F7CE01DF9160
:100C9000CF911F910F91FF90EF90DF90CF900C9428
:100CA000D005B80184E0759567958A95E1F7CE0186
:100CB0000E94E6056F2DCE01DF91CF911F910F911C
:100CC000FF90EF90DF90CF900C94E60540E0682F06
:100CD00080E793E00C941306CF93DF93823029F4DE
:100CE00090917F03986090937F0380938303109289
:100CF000840380E48093850380E18093860380E50C
:100D000080938703809174030E948800809175030B
:100D10008F3F11F00E948800809176030E94880026
:100D2000C0E7D3E09E012057334080917F0384FDCC
:100D30000AC084E090E02196281739073CF48E81A0
:100D40000E948800EFCF88E090E0F5CF8BE39DE034
:100D50000197F1F760E0809174030E941E0260E049
:100D6000809176030E941E02809175038F3F19F0D7
:100D700060E00E941E0280917F0384FD39C063E021
:100D800080E793E00E94E605CBE4D6E4CE0101972C
:100D9000F1F763E080E793E00E94E6052197F1F721
:100DA00063E080E793E00E94E60583E592E0019727
:100DB000F1F762E080E793E00E94E60580917F030F
:100DC00080620E94660684E0809380038CE00E942B
:100DD000660681E00E9466068BE39FE10197F1F7CA
:100DE00082E08093810386E0DF91CF910C946606C8
:100DF00080620E9466068BE496E40197F1F7809189
:100E00007F0380620E94660683E592E00197F1F716
:100E100080917F0380620E946606D0CF41E00E94ED
:100E2000130681E090E008952F923F924F925F92D7
:100E30006F927F928F929F92AF92BF92CF92DF92EA
:100E4000EF92FF920F931F93CF93DF9300D0CDB714
:100E5000DEB77C013B014C012BE0820E911CDC01D2
:100E600016969C91169717968C91179799838A835B
:100E7000CD90DC901197C114D10409F4CEC019961D
:100E80004C9150E0F6018481958184179507A8F074
:100E9000808191E0909393028093B5021092940226
:100EA0001092B60220E0BE016F5F7F4FC6010E9424
:100EB0000A04B12CA12C811116C080E00F900F9074
:100EC000DF91CF911F910F91FF90EF90DF90CF9026
:100ED000BF90AF909F908F907F906F905F904F905A
:100EE0003F902F900895809192028111FCCFD601FE
:100EF00014968D919C9102E010E00A191B0980174D
:100F0000910708F48C01F6019081802F013208F0DE
:100F100080E2F1E0F093920241E022E030E0201B19
:100F2000310BA216B30608F440E0409391022FEF74
:100F30002093900210928F02280F20938E02A1E03E
:100F4000A0936D0220916D02990F922B90936D02E8
:100F500090916C02913009F03FC010926C02909118
:100F60006D029093BB009091BC0093FDF8CFB5EC5F
:100F7000B093BC00909192029130E1F390918F0276
:100F8000981710F480918F02AEE6B2E0E9E2F2E049
:100F900090E0981325C01092570290935602901734
:100FA000110609F08ACF24014A0C5B1C1201C10111
:100FB0008419950980179107B8F4D60111968D917F
:100FC0009C91DC01ED91FC910284F385E02D099563
:100FD000F10181931F01EBCFE5EEE093BC00CACF96
:100FE0002D9121939F5FD5CFA00EB11EF2E0AF16D9
:100FF000B10408F478CFF7018285811140C084855F
:1010000090E0982F8827D30111969C938E93238587
:10101000822B8D939C9381E051CF1296ED91FC91A0
:101020001397309709F449CF14962D913C91159759
:1010300019964C9150E02330310589F48160898301
:101040009A834F5F5F4F02E010E09401BE016F5F33
:101050007F4FCF010E9493038111CDCF2FCF211558
:10106000310519F490689983EECF2230310511F4DF
:101070009F77F9CF2130310531F7906CF4CF83851C
:1010800090E0982F8827D30111969C938E93248506
:10109000BFCFFB0101900020E9F73197AF01461B5C
:1010A000570BDC01ED91FC910280F381E02D099456
:1010B0008F929F92AF92BF92EF92FF920F931F93E6
:1010C000CF93DF93CDB7DEB7A1970FB6F894DEBF0D
:1010D0000FBECDBF7C01FA01CB0119A2223008F46A
:1010E0002AE08E010F5D1F4F822E912CB12CA12C76
:1010F000BF01A50194010E94FC10F901CA016A30E8
:101100000CF5605DD8016E938D01232B242B252BCC
:1011100079F790E080E0109721F0BD01C7010E94AF
:101120004908A1960FB6F894DEBF0FBECDBFDF9180
:10113000CF911F910F91FF90EF90BF90AF909F9034
:101140008F900895695CDECFCF93DF93BC0187EB6E
:1011500092E00E944908EC0166E371E087EB92E0BF
:101160000E9449088C0F9D1FDF91CF9108952F9207
:101170003F924F925F926F927F928F929F92AF9227
:10118000BF92CF92DF92EF92FF921F93CF93DF93A4
:10119000EC016A017B01722EAB019601CB01B60115
:1011A0000E94F71069E371E0811126C046015701E2
:1011B000E894B7F82FEF3FEF4FE75FE7C501B401C1
:1011C0000E94F71081110CC02FEF3FEF4FE75FE750
:1011D000C501B4010E942D0F6DE371E0181664F093
:1011E0002FEF3FEF4FE75FE4C701B6010E94851084
:1011F0001816B4F461E471E0CE01DF91CF911F9134
:10120000FF90EF90DF90CF90BF90AF909F908F9026
:101210007F906F905F904F903F902F900C94490873
:101220002FEF3FEF4FE75FECC701B6010E942D0F94
:1012300087FDE0CF20E030E0A901C701B6010E94A0
:101240002D0F312C212C87FF0DC0E881F9810190F1
:10125000F081E02D6DE2CE0109951C01F7FAF094C2
:10126000F7F8F09410E060E070E080E09FE3711622
:1012700041F020E030E040E251E40E94320F1F5F75
:10128000F6CFA70196010E94C10E2B013C010E94DE
:10129000A40F4B015C012AE0BC01A401CE010E9415
:1012A00058087C01E20CF31C1123E1F1C501B401E3
:1012B0000E94D30F9B01AC01C301B2010E94C00E7A
:1012C0004B015C01E881F9810190F081E02D6EE233
:1012D000CE010995E80EF91E115020F120E030E012
:1012E00040E251E4C501B4010E948A102B013C0187
:1012F0000E94A40F4B01B12CA12C2AE0B501A4013E
:10130000CE010E945808E80EF91EC501B4010E94E2
:10131000D30F9B01AC01C301B2010E94C00E4B016F
:101320005C01DACFC701DF91CF911F91FF90EF9061
:10133000DF90CF90BF90AF909F908F907F906F90F5
:101340005F904F903F902F9008951F920F920FB68D
:101350000F9211242F933F934F935F936F937F933B
:101360008F939F93AF93BF93EF93FF9387EB92E09D
:101370000E948F01FF91EF91BF91AF919F918F914B
:101380007F916F915F914F913F912F910F900FBE81
:101390000F901F9018951F920F920FB60F92112465
:1013A0002F938F939F93EF93FF93E091C702F09158
:1013B000C8028081E091CD02F091CE0282FD1BC077
:1013C00090818091D0028F5F8F732091D10282171C
:1013D00041F0E091D002F0E0E954FD4F958F809309
:1013E000D002FF91EF919F918F912F910F900FBE9F
:1013F0000F901F9018958081F4CF1F920F920FB617
:101400000F9211242F933F938F939F93AF93BF938A
:1014100080914A0290914B02A0914C02B0914D02F2
:101420003091490223E0230F2D3758F50196A11D75
:10143000B11D2093490280934A0290934B02A093DE
:101440004C02B0934D0280914E0290914F02A091B8
:101450005002B09151020196A11DB11D80934E0220
:1014600090934F02A0935002B0935102BF91AF915D
:101470009F918F913F912F910F900FBE0F901F90D2
:10148000189526E8230F0296A11DB11DD2CF1F92F9
:101490000F920FB60F9211242F933F934F935F93A8
:1014A0006F937F938F939F93AF93BF93EF93FF932C
:1014B0008091B900887F803609F44AC0F0F58832FF
:1014C00009F4A7C018F5803109F49BC0B8F488234B
:1014D00009F4F9C0883009F494C0FF91EF91BF91ED
:1014E000AF919F918F917F916F915F914F913F91BC
:1014F0002F910F900FBE0F901F901895883109F40F
:1015000088C0803251F78093900214C0803409F46F
:101510009DC040F48033B9F38833F9F6809390028C
:1015200085ECB0C0803509F485C0883509F496C0D3
:10153000883499F60E94BF04D0CF883909F48CC052
:1015400038F5883729F050F4883611F0803729F6BD
:1015500083E0809392021092280257C0883809F4E1
:101560007BC0803919F0803809F0B7CF809128020C
:10157000803208F071C0E091280281E08E0F8093E4
:1015800028028091BB00F0E0E85FFD4F80833DC002
:10159000803B39F0E0F4803A09F479C0883A09F0E8
:1015A0009CCF84E080939202109207021092060270
:1015B000E0915402F0915502099580910602811143
:1015C0000FC081E0809306021092E60109C0803CC2
:1015D00009F4A6CF883C09F4A3CF883B09F07DCF5E
:1015E000E091070281E08E0F80930702F0E0EA515C
:1015F000FE4F80818093BB0090910702809106028C
:1016000029C080916D028093BB0085EC8093BC0063
:1016100064CF90918F0280918E02981758F5E091D7
:101620008F0281E08E0F80938F02F0E0E259FD4F30
:101630008081E9CFE0918F0281E08E0F80938F024D
:101640008091BB00F0E0E259FD4F808390918F02C2
:1016500080918E029817C8F285E8D8CFE0918F026A
:1016600081E08E0F80938F028091BB00F0E0E25901
:10167000FD4F80838091910281115CCF81E0809346
:101680006C0284EA8093BC001092920226CF85EC13
:101690008093BC001092920280912802803230F434
:1016A000E0912802F0E0E85FFD4F1082609128028F
:1016B00070E0E0915202F091530288E092E00995C7
:1016C000109228020ACF1092900234CFE7EBF2E09A
:1016D0001382128288EE93E0A0E0B0E084839583C9
:1016E000A683B7832AE031E03183208325EC30E004
:1016F0003587248724EC30E03787268720EC30E0DC
:10170000318B208B21EC30E0338B228B22EC30E0CC
:10171000358B248B26EC30E0378B268B118E128E86
:10172000138E148EE4E5F3E0138212828483958392
:10173000A683B7838CE191E091838083E0E7F3E0B7
:10174000138212828EE291E0918380838CE0848305
:101750008FEF85838BE0868385E0878384E08087B5
:1017600083E0818782E08287138614861586168639
:10177000178681E00E946C06E0E6F3E01182108299
:1017800080E483831086118612861386148615865C
:10179000168617860895CF93DF93CDB7DEB7A89747
:1017A0000FB6F894DEBF0FBECDBF789484B58260CB
:1017B00084BD84B5816084BD85B5826085BD85B5F5
:1017C000816085BD80916E00816080936E00109273
:1017D00081008091810082608093810080918100EE
:1017E000816080938100809180008160809380007F
:1017F0008091B10084608093B1008091B0008160DD
:101800008093B00080917A00846080937A00809108
:101810007A00826080937A0080917A008160809360
:101820007A0080917A00806880937A001092C100DB
:10183000E091C702F091C80282E08083E091C30288
:10184000F091C4021082E091C502F091C6028FECC3
:1018500080831092CF02E091CB02F091CC0286E01F
:101860008083E091C902F091CA0280818061808307
:10187000E091C902F091CA02808188608083E09182
:10188000C902F091CA02808180688083E091C90218
:10189000F091CA0280818F7D808380916003909156
:1018A0006103892BA9F486E090E00E942411FC01D9
:1018B00080916303808384E593E092838183138224
:1018C00080E290E095838483F0936103E09360036A
:1018D000E0906003F090610310925702109256025C
:1018E000109294021092B6020E94F0048FE091E0F0
:1018F000909355028093540280E191E090935302BB
:101900008093520211E0F7011383C7010E940E0574
:1019100081110BC085E491E00E94A4086AE070E0A8
:1019200080E090E00E948F02F9CF80E090E1A0E09B
:10193000B0E08093640390936503A0936603B09333
:1019400067038AE090E0A0E0B0E0809368039093A2
:101950006903A0936A03B0936B0380E090E0A0E07A
:10196000B0E480936C0390936D03A0936E03B093E7
:101970006F0380916003909161031BA21CA21DA2C2
:101980001EA29D8B8C8B1F8A1E8A1D8F85E090E086
:101990009B8F8A8F1E8F02E00C8F40E050E160E049
:1019A00070E0CE0144960E942804809160039091DB
:1019B0006103188A198A1A8A1B8A9A8389831C826E
:1019C0001B821A8718861F821B8709874FE959E3F4
:1019D00060E070E0CE0101960E94280480936203CB
:1019E00082E00E946C0681E691E00E94A40811E06A
:1019F00022242394312C32E0E32EF12C45E0C42E36
:101A0000D12C54E0A52EB12C60E0862E60E0962EFD
:101A10008091600390916103188A198A1A8A1B8A3F
:101A20009A8389831C821B821A8738862F821B87A0
:101A30000987BE016C5E7F4FCE0101960E9414079C
:101A4000809362036C897D89072E000C880B990BAB
:101A50000E94D50F2AE037ED43E25CE30E948A1032
:101A6000609368027093690280936A0290936B029C
:101A70008091600390916103188A198A1A8A1B8ADF
:101A80009A8389831C821B821A87F886EF821B87C0
:101A90000987BE016C5E7F4FCE0101960E9414073C
:101AA000809362036C897D8983E0769567958A953A
:101AB000E1F7660F771F660F771F072E000C880B64
:101AC000990B0E94D50F2FE632E143E85AE30E94BA
:101AD0008A1060936402709365028093660290930B
:101AE000670280916003909161031BA21CA21DA25A
:101AF0001EA29D8B8C8B1F8A1E8A1D8FDB8ECA8E29
:101B00001E8F0C8F409164035091650360916603B2
:101B100070916703CE0144960E942804809160036F
:101B200090916103188A198A1A8A1B8A9A83898379
:101B30001C821B821A87B886AF821B870987BE0169
:101B4000695D7F4FCE0101960E9414078093620366
:101B50006FA178A5072E000C880B990B0E94D50F5A
:101B60002B013C01609168037091690380916A03C5
:101B700090916B030E94D30F9B01AC01C301B20192
:101B80000E94320F2B013C01409260025092610290
:101B9000609262027092630220E030E04AE754E40F
:101BA000609168027091690280916A0290916B0263
:101BB0000E94320F209164023091650240916602CA
:101BC000509167020E94C10E60935C0270935D02A7
:101BD00080935E0290935F02A30192010E948A109B
:101BE00020E030E041E655E40E94320F6093580255
:101BF0007093590280935A0290935B0264E871E0FB
:101C000087EB92E00E94490840916402509165027E
:101C1000609166027091670222E087EB92E00E9479
:101C2000B70889E991E00E94A4086CE971E087EBAC
:101C300092E00E94490840916802509169026091C7
:101C40006A0270916B0222E087EB92E00E94B70873
:101C50008FEA91E00E94A40863EB71E087EB92E0C9
:101C60000E94490840915C0250915D0260915E02C1
:101C700070915F0222E087EB92E00E94B70889E949
:101C800091E00E94A40866EC71E087EB92E00E946C
:101C90004908409160025091610260916202709126
:101CA000630222E087EB92E00E94B70881ED91E0A9
:101CB0000E94A40864ED71E087EB92E00E9449085D
:101CC000409158025091590260915A0270915B0202
:101CD00022E087EB92E00E94B7088EED91E00E942F
:101CE000A408E1E0809183038111E0E0E195F0E058
:101CF000E059FC4F8489855F80680E9466064091A8
:101D0000600250916102609162027091630222E070
:101D100080E793E00E94B708E0918303E23040F54A
:101D2000E150F0E0E059FC4F8489865F80680E94B2
:101D30006606409158025091590260915A02709182
:101D40005B0222E080E793E00E94B70868EE73E050
:101D500080E090E00E948F028114910409F458CE33
:101D60000E947B01882309F453CE0E94000050CECC
:101D7000E1E0D7CF80916003909161030C94C01192
:101D80005058BB27AA270E94D80E0C944B100E94D3
:101D90003D1038F00E94441020F039F49F3F19F4B0
:101DA00026F40C943A100EF4E095E7FB0C943410F2
:101DB000E92F0E945C1058F3BA1762077307840773
:101DC000950720F079F4A6F50C947E100EF4E095BA
:101DD0000B2EBA2FA02D0B01B90190010C01CA01E5
:101DE000A0011124FF27591B99F0593F50F4503E90
:101DF00068F11A16F040A22F232F342F4427585F82
:101E0000F3CF469537952795A795F0405395C9F799
:101E10007EF41F16BA0B620B730B840BBAF0915051
:101E2000A1F0FF0FBB1F661F771F881FC2F70EC0F0
:101E3000BA0F621F731F841F48F4879577956795C3
:101E4000B795F7959E3F08F0B0CF9395880F08F0AF
:101E50009927EE0F9795879508950E94101008F422
:101E600081E008950E94460F0C944B100E9444108C
:101E700058F00E943D1040F029F45F3F29F00C9487
:101E8000341051110C947F100C943A100E945C1085
:101E900068F39923B1F3552391F3951B550BBB2799
:101EA000AA2762177307840738F09F5F5F4F220FDE
:101EB000331F441FAA1FA9F335D00E2E3AF0E0E8D5
:101EC00032D091505040E695001CCAF72BD0FE2F1F
:101ED00029D0660F771F881FBB1F261737074807B3
:101EE000AB07B0E809F0BB0B802DBF01FF2793586B
:101EF0005F4F3AF09E3F510578F00C9434100C94EB
:101F00007F105F3FE4F3983ED4F38695779567950D
:101F1000B795F7959F5FC9F7880F911D969587959F
:101F200097F90895E1E0660F771F881FBB1F6217BE
:101F300073078407BA0720F0621B730B840BBA0B7C
:101F4000EE1F88F7E09508950E94641088F09F576F
:101F500098F0B92F9927B751B0F0E1F0660F771FCD
:101F6000881F991F1AF0BA95C9F714C0B13091F0C3
:101F70000E947E10B1E008950C947E10672F782F98
:101F80008827B85F39F0B93FCCF386957795679588
:101F9000B395D9F73EF490958095709561957F4FF4
:101FA0008F4F9F4F0895E89409C097FB3EF490959A
:101FB0008095709561957F4F8F4F9F4F9923A9F022
:101FC000F92F96E9BB279395F695879577956795B1
:101FD000B795F111F8CFFAF4BB0F11F460FF1BC0F5
:101FE0006F5F7F4F8F4F9F4F16C0882311F096E988
:101FF00011C0772321F09EE8872F762F05C0662336
:1020000071F096E8862F70E060E02AF09A95660FEE
:10201000771F881FDAF7880F9695879597F90895A7
:10202000990F0008550FAA0BE0E8FEEF16161706E9
:10203000E807F907C0F012161306E407F50798F051
:10204000621B730B840B950B39F40A2661F0232B6A
:10205000242B252B21F408950A2609F4A140A695E6
:102060008FEF811D811D089597F99F6780E870E0CB
:1020700060E008959FEF80EC089500240A941616FE
:10208000170618060906089500240A941216130666
:10209000140605060895092E0394000C11F48823F4
:1020A00052F0BB0F40F4BF2B11F460FF04C06F5F10
:1020B0007F4F8F4F9F4F089557FD9058440F551FE6
:1020C00059F05F3F71F04795880F97FB991F61F0BA
:1020D0009F3F79F087950895121613061406551F31
:1020E000F2CF4695F1DF08C0161617061806991F9D
:1020F000F1CF86957105610508940895E894BB2792
:1021000066277727CB0197F908950E94101008F4ED
:102110008FEF08950E949D100C944B100E943D106B
:1021200038F00E94441020F0952311F00C943410E4
:102130000C943A1011240C947F100E945C1070F3E0
:10214000959FC1F3950F50E0551F629FF001729F5C
:10215000BB27F00DB11D639FAA27F00DB11DAA1F6B
:10216000649F6627B00DA11D661F829F2227B00DB8
:10217000A11D621F739FB00DA11D621F839FA00D43
:10218000611D221F749F3327A00D611D231F849F93
:10219000600D211D822F762F6A2F11249F575040EA
:1021A0009AF0F1F088234AF0EE0FFF1FBB1F661F65
:1021B000771F881F91505040A9F79E3F510580F02E
:1021C0000C9434100C947F105F3FE4F3983ED4F3EA
:1021D000869577956795B795F795E7959F5FC1F7D2
:1021E000FE2B880F911D9695879597F908950E946B
:1021F0001010880B990B0895A1E21A2EAA1BBB1B85
:10220000FD010DC0AA1FBB1FEE1FFF1FA217B307C2
:10221000E407F50720F0A21BB30BE40BF50B661FD8
:10222000771F881F991F1A9469F76095709580959C
:1022300090959B01AC01BD01CF010895EE0FFF1FEA
:102240000590F491E02D09940F931F93CF93DF93A2
:102250008230910510F482E090E0E0918A03F091E1
:102260008B0330E020E0B0E0A0E0309799F4211536
:10227000310509F44AC0281B390B24303105D8F543
:102280008A819B816115710589F1FB0193838283AA
:10229000FE0111C040815181028113814817590705
:1022A000E0F04817590799F4109761F012960C93D3
:1022B000129713961C933296CF01DF91CF911F9105
:1022C0000F91089500938A0310938B03F4CF211587
:1022D000310551F04217530738F0A901DB019A018B
:1022E000BD01DF01F801C1CFEF01F9CF90938B035E
:1022F00080938A03CDCFFE01E20FF31F8193919368
:102300002250310939832883D7CF20918803309117
:102310008903232B41F42091020130910301309372
:102320008903209388032091000130910101211538
:10233000310541F42DB73EB740910401509105019C
:10234000241B350BE0918803F0918903E217F30712
:10235000A0F42E1B3F0B2817390778F0AC014E5F15
:102360005F4F2417350748F04E0F5F1F50938903C6
:1023700040938803819391939FCFF0E0E0E09CCF5E
:10238000CF93DF930097E9F0FC013297138212821A
:10239000A0918A03B0918B03ED0130E020E010970B
:1023A000A1F420813181820F931F20918803309105
:1023B00089032817390709F061C0F0938903E09376
:1023C0008803DF91CF910895EA01CE17DF07E8F582
:1023D0004A815B819E0141155105B1F7E901FB83FB
:1023E000EA8349915991C40FD51FEC17FD0761F499
:1023F000808191810296840F951FE90199838883DA
:10240000828193819B838A83F0E0E0E012968D9134
:102410009C9113970097B9F52D913C911197CD019F
:102420000296820F931F2091880330918903281709
:10243000390739F6309751F510928B0310928A03C1
:10244000B0938903A0938803BCCFD383C283408118
:102450005181840F951FC817D90761F44E5F5F4FF4
:1024600088819981480F591F518340838A819B81BC
:10247000938382832115310509F0B0CFF0938B034C
:10248000E0938A039ECFFD01DC01C0CF138212824C
:10249000D7CF10E0CDE5D0E004C0FE010E941E11B0
:0C24A0002196CE35D107C9F7F894FFCF84
:1024AC0000008C03800000000000B10111013E010E
:1024BC00FE016F014D016101000000009E057105D8
:1024CC00CD0547056A0557054805000000000E07B5
:1024DC001101CD05C1020D0A006E616E00696E66B8
:1024EC00006F76660046616C686120616F20656ED6
:1024FC00636F6E74726172206F20494E41323139B4
:10250C00004D65646520636F7272656E746520653D
:10251C0020656E657267696120636F6D20494E415D
:10252C003231390054656E73C3A36F206465204546
:10253C006E74726164613A200020560054656E73AB
:10254C00C3A36F206E6F207368756E743A200020E1
:10255C006D560054656E73C3A36F20646120436194
:10256C007267613A2000436F7272656E74653A202F
:10257C0000204100456E65726769613A2000206554
:06258C002D376B576800BB
:00000001FF
